:100000000C9456000C9460000C9460000C946000FA
:100010000C9460000C9460000C9460000C946000E0
:100020000C9460000C9460000C9460000C946000D0
:100030000C9460000C9460000C9460000C946000C0
:100040000C9460000C9460000C9460000C946000B0
:100050000C9460000C9460000C9460000C946000A0
:100060000C9460000C9460000C9460000C94600090
:100070000C9460000C9460000C9460000C94600080
:100080000C9460000C9460000C9460000C94600070
:100090000C9460000C9460000C9460000C94600060
:1000A0000C9460000C9460000C94600011241FBE3E
:1000B000CFEFDAE0DEBFCDBF0E94DC000C942A0156
:1000C0000C9400008BB18B7F41F48BB1877F39F4A6
:1000D0008BB18F7D31F483E0089580E0089581E055
:1000E000089582E0089584B1806784B985B18067FE
:1000F00085B93F9A47988AB1837D8AB98BB18C6262
:100100008BB90895E1EEF0E080818F7E8083E5EC8D
:10011000F0E0808184608083E7ECF0E0808180FF04
:10012000FDCFE5ECF0E080818160808389B582605D
:1001300089BD8081877F808309B400FEFDCFE8ED13
:10014000F0E080818F7D80830E9473000895362FB8
:10015000811102C04798089590E0880F991F880F79
:10016000991F880F991F65E070E00E94020121E24B
:10017000261B332329F0479845E04A95F1F7000004
:1001800030E01216130664F480E090E0479A45E0F0
:100190004A95F1F700004798019682179307B1F747
:1001A00085E08A95F1F70000479A87E092E0019791
:1001B000F1F700C0000008950E9482000E946200D2
:1001C000C82FC130B1F018F0C23051F0FACF2E98DC
:1001D00085B1806385B960E08FE00E94A700F1CF10
:1001E0002D9885B1806585B960E080E00E94A70008
:1001F000E8CF2C9885B1806685B960E085E00E94E3
:10020000A700DFCF97FB072E16F4009407D077FDE9
:1002100009D00E94160107FC05D03EF49095819507
:100220009F4F0895709561957F4F0895AA1BBB1B42
:1002300051E107C0AA1FBB1FA617B70710F0A61BE6
:10024000B70B881F991F5A95A9F780959095BC0107
:08025000CD010895F894FFCFE1
:00000001FF
