S018000054426F617264436F6E74726F6C6C65722E73726563AC
S11300000C94BC000C94E4000C94E4000C94E40004
S11300100C94E4000C94E4000C94E4000C94E400CC
S11300200C94E4000C94E4000C9415020C94530218
S11300300C94E4000C94E4000C94E4000C94E400AC
S11300400C94E4000C94E4000C94E4000C94E4009C
S11300500C94F0000C94E4000C94E4000C94E6007E
S11300600C94E4000C94E4000C94E4000C94E4007C
S11300700C94E4000C94FA000C94E4000C94E40056
S11300800C94E4000C94E4000C94E4000C94E4005C
S11300900C94E4000C94E4000C94E4000C94E4004C
S11300A00C94E4000C94E4000C94E40000010000BF
S11300B05701120002000014014300030000100164
S11300C00401030904EC002202030904E0000A030A
S11300D0030904D60008080334003100300000008E
S11300E00A03530045005400690000002203410044
S11300F06E006400720065007700200045006C000B
S11301006D0065006E0064006F0072006600000000
S11301100403090409024300020100C03209040077
S1130120000102020100052400100105240101015F
S1130130042402060524060001070582031000407A
S113014009040100020A0000000705030240000040
S1130150070584024000001201000202000010C0E2
S1130160167A040001010203010001C11201803664
S1130170018136000C01110111241FBECFEFDAE01A
S1130180DEBFCDBF11E0A0E0B1E0EAE1FAE002C0D9
S113019005900D92AE30B107D9F721E0AEE0B1E0A1
S11301A001C01D92A831B207E1F710E0CBEBD0E01B
S11301B004C02197FE010E94D903CA3BD107C9F7A5
S11301C00E940A010C9400050C9400001F920F92E7
S11301D00FB60F9211240F900FBE0F901F90189519
S11301E01F920F920FB60F9211240F900FBE0F9013
S11301F01F9018951F920F920FB60F9211240F9013
S11302000FBE0F901F90189561E08EE091E00E9460
S11302100802FFCF0E9404018EE091E00E941601C3
S113022008958EE091E00E9422010895CF93DF9318
S1130230EC0185E290E00E94DF039A838983DF91D9
S1130240CF910895FC0181819281009711F00E9461
S113025077040895CF93DF93ECEBF0E094EAA9EBF5
S1130260B0E0CBEBD0E03EED24E844E9908380811C
S11302708823ECF78C91887F883011F08031B1F7B6
S11302803883208380818823ECF78C91887F8032A7
S113029011F0883529F44083808184FDFDCFE6CFB9
S11302A06093BB0084E88093BC00ECEBF0E08081B9
S11302B08823ECF78091B90084EA8093BC00ECEBCE
S11302C0F0E080818823ECF78091B900887F883042
S11302D011F0803169F48FED8093BB0084E8809342
S11302E0BC00ECEBF0E080818823ECF78091B9004E
S11302F084E88093BC00ECEBF0E080818823ECF789
S11303008091BB0094E99093BC00ECEBF0E0908109
S113031094FDFDCFDF91CF910895CF93DF93ECEB64
S1130320F0E094EAA9EBB0E0CBEBD0E03EED24E8BA
S113033054E9908380818823ECF78C91887F8830FE
S113034011F08031B1F73883208380818823ECF762
S11303508C91887F803211F0883529F45083808114
S113036084FDFDCFE6CF6093BB0084E88093BC009E
S1130370ECEBF0E080818823ECF78091B9004093A6
S1130380BB0084E88093BC00ECEBF0E08081882320
S1130390ECF78091B90084E98093BC00ECEBF0E0C9
S11303A0808184FDFDCFDF91CF910895CF93DF93BA
S11303B0EC0163E00E942A01482F486063E0CE010B
S11303C00E948D0143E467E0CE010E948D0147E461
S11303D061E0CE010E948D0144E162E0CE010E9401
S11303E08D0143E064E0CE010E948D0142E165E0AD
S11303F0CE010E948D0148E166E0CE010E948D018C
S113040040E860E0CE010E948D01DF91CF91089514
S11304102AB12AB92BB12BB91092B90028E4209340
S1130420B80061110E94D60108951F920F920FB671
S11304300F9211248F939F93EF93FF93E1EEF0E0DB
S11304408081108283FF11C01092E90091E09093A3
S1130450EB001092EC0092E19093ED0098E0909301
S1130460F000109213011092110182FF13C08091C9
S11304701301882379F080911201882359F0815067
S113048080931201811106C084E08093E9008AE31D
S11304908093E800FF91EF919F918F910F900FBE91
S11304A00F901F9018951F920F920FB60F92112460
S11304B00F931F932F933F934F935F936F937F9368
S11304C08F939F93AF93BF93CF93DF93EF93FF9358
S11304D01092E9008091E80083FF4FC1E1EFF0E062
S11304E0A08180812081908130E0392B40819081EE
S11304F050E0BA01792BC081D08192EF9093E8004B
S1130500863009F059C004C081E28093EB003CC1FD
S11305104CEA50E006ED10E0CA01FA01A591B4914D
S11305202A173B0709F5FA013296A591B4916A1787
S11305307B07D1F4FA01349645915491FC01369627
S113054024918C2F90E09D2B8F3F910519F010F092
S11305508FEF90E0821708F4282FA8EEB0E070E146
S11305606EEFC1EFD0E006C0495F5F4F40175107FF
S113057099F6CACF8C91982F9570E1F382FD04C14E
S1130580322F213108F0372F332309F4FAC0FA014E
S1130590832F94919883815031968111FACF8FEFF4
S11305A0830F90E00196480F591F231B6C93211170
S11305B0E1CF3031F9F2E8C0853061F48EEF8093F9
S11305C0E800E8EEF0E0808180FFFDCF2068209312
S11305D0E300DAC0893009F035C0A111CEC0209300
S11305E0130110921101109212018EEF8093E80012
S11305F081E029E631E0C9EED0E0ABEEB0E00CEEEC
S113060010E06DEE70E08883A9014F5F5F4FF90140
S113061094919C93992361F0FA014491F8014083E9
S1130620F901329694912D5F3F4FFB01908301C0F5
S11306309A018F5F853039F7EAEEF0E08EE180832E
S11306401082A2C0883081F4A03809F096C0E8EE88
S1130650F0E0808180FFFDCF809113018093F10051
S11306608EEF8093E80090C08132B9F4A13A09F08A
S113067084C0E8EEF0E0808180FFFDCFE6E0F1E0A9
S11306802DE031E0A1EFB0E081918C932E173F076C
S1130690D9F78EEF8093E80077C08032D1F4A1328D
S11306A009F06BC0E8EEF0E0808182FFFDCFE6E068
S11306B0F1E02DE031E0A1EFB0E08C9181932E17B1
S11306C03F07D9F7E8EEF0E08BEF80838EEF80836D
S11306D05BC0823271F4A13209F04FC02093110142
S11306E0E8EEF0E0808180FFFDCF8EEF8093E8009C
S11306F04BC081111AC0E8EEF0E0808180FFFDCF8D
S1130700A23851F4E9EEF0E060838091EB0085FBC0
S1130710882780F9108201C080E0E1EFF0E0808357
S113072010828EEF8093E8002FC0982F9D7F913028
S113073021F5A23011F5232B01F5462F4F779FEFBA
S1130740940F9430D0F49EEF9093E8004093E90026
S1130750833021F481E28093EB0016C089E1809319
S1130760EB0081E090E002C0880F991F4A95E2F700
S1130770EAEEF0E08083108207C081E28093EB0010
S113078003C06C932111F6CEFF91EF91DF91CF91CD
S1130790BF91AF919F918F917F916F915F914F9195
S11307A03F912F911F910F910F900FBE0F901F90AB
S11307B01895EE0FFF1F0590F491E02D09940F9307
S11307C01F93CF93DF938230910510F482E090E081
S11307D0E0911601F091170120E030E0A0E0B0E0D4
S11307E0309719F1408151810281138148175907CB
S11307F0C8F08417950769F4109731F012960C939A
S1130800129713961C9327C0009316011093170197
S113081022C02115310519F04217530718F49A0123
S1130820BD01EF01DF01F801DBCF21153105F9F03E
S1130830281B390B2430310580F48A819B81611592
S1130840710521F0FB019383828304C09093170107
S113085080931601FE01329644C0FE01E20FF31F9D
S11308608193919322503109398328833AC020918E
S1130870140130911501232B41F420910201309190
S1130880030130931501209314012091000130914C
S113089001012115310541F42DB73EB74091040102
S11308A050910501241B350BE0911401F0911501C1
S11308B0E217F307A0F42E1B3F0B2817390778F033
S11308C0AC014E5F5F4F2417350748F04E0F5F1F92
S11308D050931501409314018193919302C0E0E079
S11308E0F0E0CF01DF91CF911F910F910895CF9345
S11308F0DF93009709F481C0FC01329713821282BE
S1130900A0911601B0911701109781F420813181D3
S1130910820F931F20911401309115012817390774
S113092051F5F0931501E093140167C0ED0120E047
S113093030E0CE17DF0740F44A815B819E01411508
S11309405105F1F0EA01F5CFD383C283408151818F
S1130950840F951FC817D90759F488819981840F8A
S1130960951F0296918380838A819B8193838283DE
S11309702115310529F4F0931701E09316013DC0C8
S1130980E901FB83EA8349915991C40FD51FEC1700
S1130990FD0761F480819181840F951F0296E9011E
S11309A099838883828193819B838A83E0E0F0E04A
S11309B012968D919C911397009719F0FD01DC011B
S11309C0F7CF8D919C9111979D012E5F3F4F820F20
S11309D0931F20911401309115012817390769F4E8
S11309E0309729F4109217011092160102C0138255
S11309F01282B0931501A0931401DF91CF91089551
S1130A0010E0CBEBD0E004C0FE010E94D903219694
S10D0A10CC3BD107C9F7F894FFCFDF
S1110A1A00001801200000E1000000000800A8
S9030000FC
